:020000040800F2
:10000000C80C002061050008BD0500089B1200080F
:10001000BD050008BD050008BD0500080000000082
:10002000000000000000000000000000BD05000806
:10003000BD05000800000000BD050008BD05000862
:10004000BD050008BD050008BD050008BD05000888
:10005000BD050008BD050008BD050008BD05000878
:10006000BD050008BD050008BD050008BD05000868
:10007000BD050008BD050008BD050008BD05000858
:10008000BD050008BD050008BD050008BD05000848
:10009000BD050008BD050008BD050008BD05000838
:1000A000BD050008BD050008BD050008BD05000828
:1000B000DD040008BD050008BD050008BD050008F9
:1000C000BD050008BD050008BD050008BD05000808
:1000D000BD050008BD050008BD050008BD050008F8
:1000E000BD050008BD050008BD050008BD050008E8
:1000F000BD050008BD050008BD050008BD050008D8
:10010000BD050008BD050008BD050008BD050008C7
:10011000BD050008BD050008BD0500083105000843
:10012000BD050008BD050008BD050008BD050008A7
:10013000BD050008BD050008BD050008BD05000897
:10014000BD050008BD050008BD050008BD05000887
:10015000BD050008BD050008BD050008BD05000877
:10016000BD050008BD050008BD050008BD05000867
:10017000BD050008BD050008BD050008BD05000857
:10018000BD050008BD05000880B582B000AF7860ED
:10019000144B1B785A1CD1B2124A11707A68D1B232
:1001A000114AD1540F4B1B780F4A0021D1540D4BEB
:1001B0001B7801330F2B05D87B680A2B02D07B6894
:1001C000002B0CD1074B00221A70074B0420194654
:1001D000002201F057F80346002B00D000BF08377B
:1001E000BD4680BDA00400209004002080B500AF73
:1001F000074B00221A60064B00225A60044B002273
:100200009A6000F0B3F800F0F1F800F03BF980BD1F
:10021000A404002080B582B000AF4FF000037B60E3
:1002200000233B602E4B00221A604FF080400021DB
:1002300001F0C2F94FF08040012101F0EBF900F02C
:1002400057F800233B60264B00225A6025480121C5
:1002500001F0E0F9224B1B68002B01D001233B6029
:100260001F4B5A6842F227339A4201D902233B605E
:100270003B68002BEED01B48002101F0CBF94FF07A
:100280008040002101F0C6F9154B00225A60154844
:10029000012101F0BFF900BF114B5A684EF65F23F0
:1002A0009A42F9D90F48002101F0B4F93B68012BBB
:1002B0000CD10B4B9B68184601F064FC03461846B2
:1002C000094901F0B7FC03467B6001E0074B7B6006
:1002D000034B00225A607B6818460837BD4680BD34
:1002E000A404002000140040E73A8D3C000080BFC9
:1002F00080B500AF0B4B00225A600B4B08221A83CB
:100300000A48012101F086F900BF064B5B68092B02
:10031000FBD90648002101F07DF9034B08225A83DE
:1003200080BD00BFA4040020000C02400014004067
:1003300080B500AF0420012100F02AFB094B062202
:100340001A60084B01221A71064B00229A71054B64
:100350000222DA71034B02225A710348014900F06C
:10036000A1FE80BDB80400200008024080B500AFA7
:100370000820012100F00CFB194B08221A60184BD1
:1003800001221A71164B00229A71154B0222DA7162
:10039000134B02225A711348114900F083FE114B8E
:1003A00008225A830120012100F0F2FA0C4B0122AD
:1003B0001A600B4B02221A71094B03225A71084B27
:1003C00000229A71064B0022DA710748044900F0B6
:1003D00069FE05480021012200F00EFF80BD00BF2C
:1003E000B0040020000C02400000024080B586B03E
:1003F00000AF2020012100F0E9FA2148002101F09E
:1004000009F909237B6053233B8000233B810023B0
:100410007B803B461A48194601F050F818480121E4
:1004200001F0D8F80120012100F0D0FA4FF080400F
:100430005321012201F0ACF80023BB810223FB8190
:1004400001233B8200237B820023BB8207F10C0344
:100450004FF08040194601F0FDF84FF080405021E8
:1004600001F004FA4FF08040042101F01BFA4FF034
:100470008040802101F032FA1837BD4680BD00BFB0
:100480000014004080B582B000AF1C233B710023F4
:100490007B710123BB710123FB713B1D184600F0EA
:1004A000AFFF4FF080400221012201F081F9372394
:1004B0003B7100237B710023BB710123FB713B1D4A
:1004C000184600F09DFF04480121012201F070F957
:1004D0000837BD4680BD00BF0014004080B582B023
:1004E00000AF4FF08040022101F086F90346012B56
:1004F00018D14FF08040022101F0A8F94FF0804060
:1005000001F004F978604FF0804001F00BF9386099
:100510007A683B68D21A054B9A60044B1B685A1CD8
:10052000024B1A600837BD4680BD00BFA4040020FE
:1005300080B500AF0848012101F05EF90346002BA9
:1005400009D00548012101F081F9044B5B6803F1F2
:100550000A02024B5A6080BD00140040A40400202F
:1005600080B582B000AF104B7B60104B3B6007E062
:100570003B681A1D3A607A68111D796012681A602A
:100580003A680B4B9A42F3D30A480B494FF00002EA
:100590008842B8BF40F8042BFFF6FAAF00F0CEF85F
:1005A0000837BD4680BD00BF3C2000080000002089
:1005B0009004002090040020C404002080B400AF08
:1005C000FEE700BF80B584B000AF0023FB7342E0BC
:1005D000FA7B244913469B0013449B000B440833C9
:1005E0005B681846012100F0D3F9FA7B1D491346D8
:1005F0009B0013449B000B4408331B887B60012342
:100600003B720023BB720123FB7202237B72FA7BD5
:10061000144913469B0013449B000B445A683B1D2E
:100620001046194600F03EFDFA7B0E4913469B002A
:1006300013449B000B4410331B78002B04D1FB7B2D
:10064000184600F011F803E0FB7B184600F02AF88A
:10065000FB7B0133FB73FB7B032BB9D91037BD4602
:1006600080BD00BF0000002080B483B000AF03460F
:10067000FB71FA790A4913469B0013449B000B4413
:100680005968FA79064813469B0013449B000344BB
:1006900008331B884B830C37BD465DF8047B7047DD
:1006A0000000002080B483B000AF0346FB71FA79EC
:1006B0000A4913469B0013449B000B445968FA797E
:1006C000064813469B0013449B00034408331B88D1
:1006D0000B830C37BD465DF8047B7047000000209B
:1006E00080B584B000AF3B46184600F0A7F87A68A2
:1006F000044BA3FB02131B0D1A46034B1A60103761
:10070000BD4680BD83DE1B43C004002080B483B09F
:1007100000AF7860084B1B687A6802FB03F30A3B62
:100720007B6000BF7B685A1E7A60002BFAD10C37C1
:10073000BD465DF8047B7047C004002080B582B0E0
:1007400000AF00F0B7FDFFF73DFFFFF7F1FDFFF74A
:100750004DFDFFF7C5FF00237B6065E07B68032B41
:100760002ED801A252F823F0790700088B07000861
:100770009D070008AF0700082D48022100F02EFD5C
:100780002B48042100F02AFD1BE02948022100F03B
:1007900025FD2748042100F013FD12E02448022122
:1007A00000F00EFD2248042100F018FD09E0204869
:1007B000022100F005FD1E48042100F001FD00E0CB
:1007C00000BFFFF727FD386038684FF0000101F0E7
:1007D000EDFB0346002B0CD00020FFF745FF012066
:1007E000FFF742FF0220FFF73FFF0320FFF75AFF0A
:1007F0000BE00020FFF738FF0320FFF735FF012053
:10080000FFF732FF0220FFF74DFF386801F0D8FBF9
:100810000346084879681A4600F0ECFB0648FFF7E3
:1008200075FF7B6801337B607B68032B96DD92E765
:10083000000802400C20000840420F0080B489B03C
:1008400000AF78600023BB6100237B610023FB6164
:1008500002233B610023FB600223BB60484B9B6883
:1008600003F00C03BB61BB69042B07D0082B09D034
:10087000002B3FD17B68434A1A603FE07B68424AC5
:100880001A603BE03E4B5B6803F480039B0DFB600A
:100890003B4B5B6803F03F03BB60FB68002B0DD054
:1008A000394ABB68B2FBF3F2354B596847F6C0735F
:1008B0000B409B0903FB02F3FB610CE0314ABB6870
:1008C000B2FBF3F22E4B596847F6C0730B409B09FD
:1008D00003FB02F3FB612A4B5B6803F440331B0C00
:1008E00001335B003B61FA693B69B2FBF3F27B6861
:1008F0001A6003E07B68234A1A6000BF204B9B68A4
:1009000003F0F003BB61BB691B09BB611F4ABB69F4
:1009100013441B78DBB27B617B681A687B69DA4021
:100920007B685A60164B9B6803F4E053BB61BB695C
:100930009B0ABB61154ABB6913441B78DBB27B6120
:100940007B685A687B69DA407B689A600C4B9B68CD
:1009500003F46043BB61BB695B0BBB610B4ABB69C2
:1009600013441B78DBB27B617B685A687B69DA4091
:100970007B68DA602437BD465DF8047B704700BFB2
:10098000003802400024F40000127A0050000020D9
:1009900080B483B000AF78600B46FB70FB78002B0F
:1009A00006D0094B084A116B7A680A431A6306E0BD
:1009B000054B054A116B7A68D2430A401A630C371B
:1009C000BD465DF8047B70470038024080B483B0B8
:1009D00000AF78600B46FB70FB78002B06D0094B0C
:1009E000084A116C7A680A431A6406E0054B054A06
:1009F000116C7A68D2430A401A640C37BD465DF820
:100A0000047B70470038024080B582B000AF0346D7
:100A1000FB71FB791846FFF7B7FB0837BD4680BD71
:100A200080B483B000AF78600B46FB707B68FA78C7
:100A30001A70012318460C37BD465DF8047B7047D9
:100A400080B485B000AF786039600023FB600AE0B5
:100A50007B685A1C7A603A68511C396012781A70A7
:100A6000FB680133FB603B681B78002BF0D1FB680F
:100A700018461437BD465DF8047B704780B586B0D4
:100A800000AFF8607A603B600B46FB7200237B612D
:100A90007B68013B7B603B68092B10D93A681E4B91
:100AA000A3FB0213DB08FA7AF86811467A68FFF7AD
:100AB000E5FF78617B69FA681344FB6011E00DE0A3
:100AC000FB7AF8681946FFF7ABFFFB680133FB6060
:100AD0007B6901337B617B68013B7B607B68002B1A
:100AE000EEDC39680C4BA3FB0123DA0813469B00AC
:100AF00013445B00CA1AD3B23033DBB2F86819462C
:100B0000FFF78EFF03467A6913447B617B691846C1
:100B10001837BD4680BD00BFCDCCCCCC80B586B0EB
:100B200000AFF8607A603B600B46FB7200237B618C
:100B30003B68002B03DA3B685B423B6101E03B68AA
:100B40003B617B68013B7B603B69092B21D93B689A
:100B5000002B0DDA3A692F4BA3FB0213DB085B4233
:100B6000FA7AF86811467A68FFF7D8FF78610BE0E7
:100B70003A69284BA3FB0213DB08FA7AF86811469E
:100B80007A68FFF7CBFF78617B69FA681344FB60F2
:100B900026E03B68002B03DA7B68013B7B600EE0BC
:100BA0000DE0FB7AF8681946FFF73AFFFB6801335E
:100BB000FB607B6901337B617B68013B7B607B6809
:100BC000002BEEDC3B68002B0ADAF8682D21FFF7DA
:100BD00027FF03467A6913447B61FB680133FB609E
:100BE00039690C4BA3FB0123DA0813469B0013441D
:100BF0005B00CA1AD3B23033DBB2F8681946FFF78C
:100C00000FFF03467A6913447B617B6918461837E6
:100C1000BD4680BDCDCCCCCC80B588B002AFF860ED
:100C20007A600A46FA72BB7200237B617B68013BE3
:100C30007B603B6A1B09002B12D03B6A1909FA7AC8
:100C4000BB7A0091F86811467A68FFF7E5FF034622
:100C50007A6913447B617B69FA681344FB6011E095
:100C60000DE0FB7AF8681946FFF7DAFEFB680133FE
:100C7000FB607B6901337B617B68013B7B607B6848
:100C8000002BEEDC3B6A03F00F03092B0BD83B6A09
:100C9000DBB203F00F03DBB23033DBB2F868194686
:100CA000FFF7BEFE19E0BB7A002B0BD03B6ADBB22C
:100CB00003F00F03DBB23733DBB2F8681946FFF7F6
:100CC000AFFE0AE03B6ADBB203F00F03DBB257333F
:100CD000DBB2F8681946FFF7A3FE7B6901337B613D
:100CE0007B6918461837BD4680BD00BF80B58AB005
:100CF00002AFF860B9607A603B600023BB610023FB
:100D00007B61FB68002B03D0FB6800221A70F8E0BF
:100D1000F7E07B681B78252B0BD0FB685A1CFA6028
:100D20007A68511C796012781A707B6901337B6193
:100D3000E7E07B6801331B78252B0BD1FB685A1C3D
:100D4000FA6025221A707B6802337B607B6901336D
:100D50007B61D6E02023FB770023BB777B680133E0
:100D60007B607B681B78302B05D13023FB777B6859
:100D700001337B600FE00EE0BB7F1A469200134404
:100D80005B00DAB27B681B781344DBB2303BBB7785
:100D90007B6801337B607B681B782F2B03D97B68D2
:100DA0001B78392BE8D9BA7F7B6913441A46BB6894
:100DB0009A4205D9BB68DAB27B69DBB2D31ABB773A
:100DC0007B681B78583B202B00F28D8001A252F8E3
:100DD00023F000BFA10E0008E70E0008E70E000890
:100DE000E70E0008E70E0008E70E0008E70E00080F
:100DF000E70E0008E70E0008E70E0008E70E0008FF
:100E0000D10E0008590E0008E70E0008E70E000892
:100E1000E70E0008E70E0008590E0008E70E00086C
:100E2000E70E0008E70E0008E70E0008E70E0008CE
:100E3000E70E0008E70E0008E70E0008E70E0008BE
:100E4000BD0E0008E70E00086F0E0008E70E000850
:100E5000E70E0008850E0008BA7F3B68191D39604F
:100E60001B68F97FF868FFF759FEB8613EE0BA7F6A
:100E70003B68191D39601B68F97FF868FFF7FEFDB4
:100E8000B86133E0BA7F3B68191D39601968FB7F90
:100E90000091F86819460023FFF7BEFEB86125E00F
:100EA000BA7F3B68191D39601968FB7F0091F868AB
:100EB00019460123FFF7B0FEB86117E03B681A1D21
:100EC0003A601B68F8681946FFF7BAFDB8610DE093
:100ED0003B681A1D3A601B68DBB2F8681946FFF7D9
:100EE0009FFDB86102E04FF0FF3325E07B680133DE
:100EF0007B60BB69FA681344FB607A69BB69134481
:100F00007B617B681B78002B04D07A69BB689A42AE
:100F1000FFF4FFAE7A69BB689A4203D2FB680022F5
:100F20001A7008E0FB68013BFB60FB6800221A7046
:100F30007B69013B7B617B6918462037BD4680BDDC
:100F400080B584B000AFF860B9607A60F868642159
:100F5000BA687B68FFF7CAFE034618461037BD46DD
:100F600080BD00BFB0B5A6B000AFF860B9607A60D0
:100F7000144B07F110041D460FCD0FC40FCD0FC445
:100F80002B68236007F134031846B9687A68FFF7C5
:100F9000D7FF0346632B09DD0B4B1B68DB6807F1AA
:100FA00010021046194600F059F8FEE707F1340325
:100FB0001846F96800F052F8034618469837BD46BF
:100FC000B0BD00BF182000088804002080B582B0A2
:100FD00000AF78603960064B1B689B6818467968DB
:100FE0003A68FFF7BFFF034618460837BD4680BD85
:100FF000880400200FB480B582B000AF07F114035D
:101000003B6038693968FFF7E1FF78607B68184614
:101010000837BD46BDE8804004B0704780B582B057
:1010200000AF786039600C4B1B689A683B689A4245
:1010300005D0094B1B68DA683B689A4206D17B6889
:10104000DBB21846FFF7E0FC7B6801E04FF0FF33AE
:1010500018460837BD4680BD8804002080B584B09E
:1010600000AF786039600023FB6012E07B681B787A
:1010700018463968FFF7D2FF0346B3F1FF3F02D1AC
:101080004FF0FF330AE0FB680133FB607B680133FC
:101090007B607B681B78002BE8D1FB681846103713
:1010A000BD4680BD80B487B000AF78603960002352
:1010B0007B6100233B610023FB6000237B6176E0C2
:1010C0007B69012202FA03F33B613B681A683B69C2
:1010D0001340FB60FA683B699A4265D17B681A68E5
:1010E0007B695B00032101FA03F3DB431A407B6851
:1010F0001A607B681A683B681B7919467B695B003C
:1011000001FA03F31A437B681A603B681B79012BD1
:1011100003D03B681B79022B2ED17B689A687B69D0
:101120005B00032101FA03F3DB431A407B689A60FA
:101130007B689A683B685B7919467B695B0001FABA
:1011400003F31A437B689A607B685A687B699BB299
:10115000012101FA03F3DB431A407B685A607B6884
:101160005A683B689B7919467B699BB201FA03F385
:101170009BB21A437B685A607B68DA687B699BB2D2
:101180005B00032101FA03F3DB431A407B68DA605A
:101190007B68DA683B68DB7919467B695B0001FA9A
:1011A00003F31A437B68DA607B6901337B617B69F7
:1011B0000F2B85D91C37BD465DF8047B704700BFF7
:1011C00080B483B000AF78600B467B807B687A8800
:1011D0001A830C37BD465DF8047B704780B483B03A
:1011E00000AF78600B467B807B687A885A830C3727
:1011F000BD465DF8047B704780B485B000AF786071
:1012000013460A467A807B700023FB600023BB6094
:101210007A787B8803F007039B0002FA03F3FB60F4
:101220007B88DB089BB21A467B88DB089BB2194699
:101230007B68083153F821107B8803F007039B007B
:101240000F2000FA03F3DB4319407B68083243F8B0
:1012500022107B88DB089BB21A467B68083253F861
:101260002220FB681343BB607B88DB089BB21A46D5
:101270007B680832B96843F822101437BD465DF820
:10128000047B7047ABBE00F002B800207047002A14
:1012900000F0018010600120704706980188044A20
:1012A000914240F00380043006907047FEE7000052
:1012B000ABBE000080B500AF114B114A126842F07E
:1012C00001021A600E4B00229A600D4A0C4B1B68FB
:1012D00023F0847323F480331360094B094A5A6066
:1012E000074B074A126822F480221A60044B00223E
:1012F000DA6000F00BF8044B4FF000629A6080BD9A
:10130000003802401030002400ED00E080B483B0CB
:1013100000AF00237B6000233B60354B344A1268EA
:1013200042F480321A60324B1B6803F400333B6096
:101330007B6801337B603B68002B03D17B68B3F58E
:10134000A06FF0D12A4B1B6803F40033002B02D0AE
:1013500001233B6001E000233B603B68012B42D14D
:10136000234B234A126C42F080521A64214B214ACB
:10137000126842F480421A601D4B1D4A92689A60BE
:101380001B4B1B4A926842F400429A60184B184A61
:10139000926842F4A0529A60154B174A5A60144B57
:1013A000134A126842F080721A6000BF104B1B682B
:1013B00003F00073002BF9D0104B40F205621A6065
:1013C0000B4B0B4A926822F003029A60084B084AC2
:1013D000926842F002029A6000BF054B9B6803F0DE
:1013E0000C03082BF9D10C37BD465DF8047B704720
:1013F000003802400070004008544007003C0240A2
:1014000080B485B000AF78600023FB730023BB730A
:101410000F237B737B68DB78002B37D0254BDB6891
:10142000DB4303F4E0631B0AFB73FB7BC3F10403A0
:10143000BB737A7BFB7B42FA03F37B737B685B783D
:101440001A46BB7B02FA03F3FB737B689A787B7BBB
:101450001340DAB2FB7B1343FB73FB7B1B01FB7373
:10146000154A7B681B781344FA7B83F80023124BE0
:101470007A6812785209D2B27968097801F01F01AE
:10148000012000FA01F143F822100EE00A4B7A68BD
:1014900012785209D2B27968097801F01F0101204F
:1014A00000FA01F1203243F822101437BD465DF8EE
:1014B000047B704700ED00E000E100E080B485B0FF
:1014C00000AF786039600023FB817B681B88FB815B
:1014D0007A68284B9A4213D07A68274B9A420FD0E9
:1014E0007B68B3F1804F0BD07A68244B9A4207D0C7
:1014F0007A68234B9A4203D07A68224B9A4208D1E9
:10150000FB8923F07003FB813B685A88FB891343F6
:10151000FB817A681C4B9A420CD07A681B4B9A422A
:1015200008D0FB8923F44073FB813B681A89FB894F
:101530001343FB817B68FA891A803B685A687B6891
:10154000DA623B681A887B681A857A68094B9A4286
:1015500003D07A68084B9A4204D13B689B7A1A46BA
:101560007B681A867B6801229A821437BD465DF833
:10157000047B70470000014000040140000400406B
:1015800000080040000C0040001000400014004023
:1015900080B483B000AF786013460A467A803B80FF
:1015A0007B687A881A857B683A889A820C37BD46B0
:1015B0005DF8047B704700BF80B483B000AF7860F3
:1015C00039607B683A685A620C37BD465DF8047B27
:1015D000704700BF80B483B000AF78600B46FB70EB
:1015E000FB78002B08D07B681B889BB243F08003FC
:1015F0009AB27B681A8007E07B681B889BB223F055
:1016000080039AB27B681A800C37BD465DF8047B74
:10161000704700BF80B483B000AF78600B46FB70AA
:10162000FB78002B08D07B681B889BB243F001033A
:101630009AB27B681A8007E07B681B889BB223F014
:1016400001039AB27B681A800C37BD465DF8047BB3
:10165000704700BF80B584B000AF78603960002368
:10166000FB810123BB813B685B88002B02D10223F5
:10167000FB8101E00023FB813B689B88012B02D1A9
:101680000223BB8101E00123BB813B681B88002B47
:101690001CD13B6859883B689A883B681B897868ED
:1016A00000F038F93B68DB887868194600F046F8A6
:1016B0003B681B89F989BA89786800F067F93B684B
:1016C000DB887868194600F055F81BE03B685988BC
:1016D0003B689A883B681B89786800F057F93B683B
:1016E000DB887868194600F045F83B681B89F98962
:1016F000BA89786800F00EF93B68DB88786819468B
:1017000000F01CF81037BD4680BD00BF80B483B028
:1017100000AF78607B685B6B18460C37BD465DF8A0
:10172000047B704780B483B000AF78607B689B6BAC
:1017300018460C37BD465DF8047B704780B483B013
:1017400000AF78600B467B807B681B8B9BB223F0DD
:101750000C039AB27B681A837B681B8B9AB27B88D6
:1017600013439AB27B681A830C37BD465DF8047B3D
:10177000704700BF80B483B000AF78600B467B80B9
:101780007B681B8B9BB223F440639AB27B681A83FD
:101790007B681B8B9AB27B881B029BB213439AB265
:1017A0007B681A830C37BD465DF8047B704700BF29
:1017B00080B483B000AF786013460A467A807B70AD
:1017C0007B78002B08D07B689B899AB27B88134377
:1017D0009AB27B689A8109E07B689B899AB27B8880
:1017E000DB439BB213409AB27B689A810C37BD46AB
:1017F0005DF8047B704700BF80B485B000AF7860AF
:101800000B467B800023FB730023BB8100237B817D
:101810007B681B8A9AB27B881340BB817B689B895B
:101820009AB27B8813407B81BB89002B05D07B89D2
:10183000002B02D00123FB7301E00023FB73FB7B31
:1018400018461437BD465DF8047B704780B483B0FA
:1018500000AF78600B467B807B88DB439AB27B6865
:101860001A820C37BD465DF8047B704780B485B0A2
:1018700000AF78600B467B800023FB817B681B896F
:10188000FB81FB8923F07003FB81FA897B8813437A
:10189000FB817B68FA891A811437BD465DF8047BA9
:1018A000704700BF80B483B000AF78600B467B8088
:1018B0007B681B899BB223F007039AB27B681A816D
:1018C0007B681B899AB27B8813439AB27B681A8122
:1018D0000C37BD465DF8047B704700BF80B483B011
:1018E00000AF78600B467B807B681B899BB223F03E
:1018F00080039AB27B681A817B681B899AB27B88C5
:1019000013439AB27B681A810C37BD465DF8047B9D
:10191000704700BF80B487B000AFF86079813A812A
:10192000FB800023FB820023BB82FB681B8C9BB2E5
:1019300023F001039AB2FB681A84FB681B8BFB82BD
:10194000FB681B8CBB82FB8A23F0F303FB82FB88C2
:101950001B019AB23B8913439AB2FB8A1343FB8261
:10196000BB8A23F00A03BB827A89BB8A13439BB2EA
:1019700043F00103BB82FB68FA8A1A83FB68BA8AC8
:101980001A841C37BD465DF8047B704780B487B06D
:1019900000AFF86079813A81FB800023FB8200234D
:1019A000BB8200237B82FB681B8C9BB223F010035D
:1019B0009AB2FB681A84FB681B8BFB82FB681B8C4A
:1019C000BB827B891B017B82FB8A23F440731B054E
:1019D0001B0DFB82FB881B039AB2FB8A1343FB821D
:1019E0003B891B029AB2FB8A1343FB82BB8A23F01A
:1019F000A003BB827A8ABB8A13439BB243F01003D5
:101A0000BB82FB68FA8A1A83FB68BA8A1A841C377D
:101A1000BD465DF8047B704780F0004002E000BFE7
:101A200081F0004142001FBF5FEA410392EA030FC9
:101A30007FEA226C7FEA236C6AD04FEA1262D2EB13
:101A40001363C1BFD218414048404140B8BF5B4218
:101A5000192B88BF704710F0004F40F4000020F0B1
:101A60007F4018BF404211F0004F41F4000121F0C7
:101A70007F4118BF494292EA030F3FD0A2F1010211
:101A800041FA03FC10EB0C00C3F1200301FA03F14F
:101A900000F0004302D5494260EB4000B0F5000F72
:101AA00013D3B0F1807F06D340084FEA310102F131
:101AB0000102FE2A51D2B1F1004F40EBC25008BFE3
:101AC00020F0010040EA03007047490040EB0000AD
:101AD00010F4000FA2F10102EDD1B0FA80FCACF1DC
:101AE000080CB2EB0C0200FA0CF0AABF00EBC250DB
:101AF00052421843BCBFD0401843704792F0000FC9
:101B000081F4000106BF80F400000132013BB5E71B
:101B10004FEA41037FEA226C18BF7FEA236C21D091
:101B200092EA030F04D092F0000F08BF08467047F6
:101B300090EA010F1CBF0020704712F07F4F04D1C4
:101B4000400028BF40F00040704712F100723CBFD7
:101B500000F50000704700F0004343F0FE4040F401
:101B6000000070477FEA226216BF08467FEA2363BF
:101B70000146420206BF5FEA412390EA010F40F4AA
:101B8000800070474FF0000304E000BF10F00043F6
:101B900048BF40425FEA000C08BF704743F09643DD
:101BA00001464FF000001CE050EA010208BF7047F8
:101BB0004FF000030AE000BF50EA010208BF70477F
:101BC00011F0004302D5404261EB41015FEA010C94
:101BD00002BF84460146002043F0B64308BFA3F18C
:101BE0008053A3F50003BCFA8CF2083AA3EBC2536E
:101BF00010DB01FA02FC634400FA02FCC2F120028D
:101C0000BCF1004F20FA02F243EB020008BF20F0C3
:101C10000100704702F1200201FA02FCC2F1200229
:101C200050EA4C0021FA02F243EB020008BF20EA1E
:101C3000DC7070474FF0FF0C1CEAD0521EBF1CEA4C
:101C4000D15392EA0C0F93EA0C0F6FD01A4480EA3A
:101C5000010C400218BF5FEA41211ED04FF0006323
:101C600043EA501043EA5111A0FB01310CF000404F
:101C7000B1F5000F3EBF490041EAD3715B0040EA75
:101C8000010062F17F02FD2A1DD8B3F1004F40EB45
:101C9000C25008BF20F00100704790F0000F0CF018
:101CA000004C08BF49024CEA502040EA51207F3ADC
:101CB000C2BFD2F1FF0340EAC250704740F40000B7
:101CC0004FF00003013A5DDC12F1190FDCBF00F0A8
:101CD00000407047C2F10002410021FA02F1C2F156
:101CE000200200FA02FC5FEA310040F1000053EAF2
:101CF0004C0308BF20EADC70704792F0000F00F040
:101D0000004C02BF400010F4000F013AF9D040EA45
:101D10000C0093F0000F01F0004C02BF490011F4D9
:101D2000000F013BF9D041EA0C018FE70CEAD153D7
:101D300092EA0C0F18BF93EA0C0F0AD030F0004C57
:101D400018BF31F0004CD8D180EA010000F000400B
:101D5000704790F0000F17BF90F0004F084691F0C9
:101D6000000F91F0004F14D092EA0C0F01D1420203
:101D70000FD193EA0C0F03D14B0218BF084608D1CC
:101D800080EA010000F0004040F0FE4040F4000016
:101D9000704740F0FE4040F4400070474FF0FF0CA9
:101DA0001CEAD0521EBF1CEAD15392EA0C0F93EAF0
:101DB0000C0F69D0A2EB030280EA010C49024FEA42
:101DC000402037D04FF0805343EA111143EA1013FB
:101DD0000CF000408B4238BF5B0042F17D024FF4B3
:101DE000000C8B4224BF5B1A40EA0C00B3EB510F8E
:101DF00024BFA3EB510340EA5C00B3EB910F24BF77
:101E0000A3EB910340EA9C00B3EBD10F24BFA3EBFB
:101E1000D10340EADC001B0118BF5FEA1C1CE0D1C3
:101E2000FD2A3FF650AF8B4240EBC25008BF20F076
:101E3000010070470CF0004C4CEA50207F32C2BFCA
:101E4000D2F1FF0340EAC250704740F400004FF067
:101E50000003013A37E792F0000F00F0004C02BF98
:101E6000400010F4000F013AF9D040EA0C0093F062
:101E7000000F01F0004C02BF490011F4000F013BBC
:101E8000F9D041EA0C0195E70CEAD15392EA0C0F24
:101E900008D142027FF47DAF93EA0C0F7FF470AF5C
:101EA000084676E793EA0C0F04D14B023FF44CAF9F
:101EB00008466EE730F0004C18BF31F0004CCAD134
:101EC00030F000427FF45CAF31F000437FF43CAF70
:101ED0005FE700BF4FF0FF3C06E000BF4FF0010C92
:101EE00002E000BF4FF0010C4DF804CD4FEA400274
:101EF0004FEA41037FEA226C18BF7FEA236C11D0BE
:101F000001B052EA530C18BF90EA010F58BFB2EB70
:101F1000030088BFC81738BF6FEAE17018BF40F0F0
:101F2000010070477FEA226C02D15FEA402C05D1A4
:101F30007FEA236CE4D15FEA412CE1D05DF8040B29
:101F4000704700BF844608466146FFE70FB5FFF7BC
:101F5000C9FF002848BF10F1000F0FBD4DF808ED74
:101F6000FFF7F4FF0CBF012000205DF808FB00BF65
:101F70004DF808EDFFF7EAFF34BF012000205DF8BF
:101F800008FB00BF4DF808EDFFF7E0FF94BF01200C
:101F900000205DF808FB00BF4DF808EDFFF7D2FF09
:101FA00094BF012000205DF808FB00BF4DF808ED4C
:101FB000FFF7C8FF34BF012000205DF808FB00BF19
:101FC0004FEA4002B2F1FE4F0FD34FF09E03B3EB46
:101FD00012620DD94FEA002343F0004310F0004F86
:101FE00023FA02F018BF404270474FF000007047DC
:101FF00012F1610F01D1420205D110F0004008BF7B
:102000006FF0004070474FF0000070475B25645D43
:102010002025640D0A000000737464696F2E633A12
:1020200020696E637265617365204D41585F53543A
:0C20300052494E475F53495A450A0D00C3
:10203C0000000000000C024000100000080000002E
:10204C000000000001000000000C02400020000015
:10205C00080000000000000002000000000C02401C
:10206C000040000008000000000000000300000019
:10207C00000C02400080000008000000000000007E
:10208C000000000001020304010203040607080912
:10209C000000000000000000010000000000000033
:1020AC000000000000000000000000000000000024
:1020BC000000000000000000000000000000000014
:1020CC000000000000000000000000000000000004
:1020DC0000000000000000000000000000000000F4
:1024BC000000000000000000600000200000000090
:0400000508000000EF
:00000001FF
